:0C1A62000201020400000109000202055C
:10111C00470000001902252124004D00CC00312885
:10112C00313031303131303130314100D900C101F1
:10113C00C10060C0000B0008B6900008B68700071D
:10114C00FC2B0007FC230006F8DB0006F8D2000697
:10115C00F8C700063F5700063F4C00052523000545
:10116C001AF5000525B90005252F000502D300004E
:10117C00000000113FBA00113EFE00113EDD0011CF
:10118C003D7800113EE400113EE300113EE10011F8
:10119C003EE000113EDE00113EDD00100014001098
:1011AC000017001002EE001000980027E722002E16
:1011BC0012A6002E3DDD0030911F002FC37E0033A0
:1011CC0075290033AAA30033F9D00036EEE80037B6
:1011DC00F55D0043FFF9004491380045227500434A
:1011EC00FFFA00449137004522760042F8FD0004D6
:0611FC0033950002FAD455
:101A4200438E4053890FE4F58BF58DC28FD28E22DF
:1018D5001214B7AF8DEFFEAD8B7C00E42DFFEC3E0F
:1018E500FE1218181217DA7C007D2F1209059000D8
:1018F50007EDF09000F5E0C454F0FFA3E02F900051
:0219050009F0E7
:0119070022BD
:1019EA00E4F594F593F592F591F596F595F5B2F53A
:0A19FA00B1D290D295D282D283229E
:101977001214B79000F2E02401FFE433FE9000094F
:10198700E0C39FEE6480F874809840031218D52254
:091A0400E4F0A3EFF0A3A3E0FF5E
:0E1A0D00EFB40A047E208004EF2430FEAF0602
:011A1B0022A8
:08000300900101EEF0A3EFF003
:10000B00D3940EEE648094804003020185E4A3F048
:10001B00A3F0900101E0FEA3E07802C333CE33CE10
:10002B00D8F9240BF58274003EF583E0FCA3E0FDC8
:10003B00A3E0FEA3E0FF7BA07A867901780012098A
:10004B00F0900105EEF0A3EFF0900101E0FEA3E0CC
:10005B007802C333CE33CED8F9240BF58274003E2D
:10006B00F583E0FCA3E0FDA3E0FEA3E0FF7BA07A19
:10007B0086790178001209F0AC00AD01AE02AF0336
:10008B00E47B107A27F9F81209F0900107EEF0A340
:10009B00EFF0900101E0FEA3E07802C333CE33CE44
:1000AB00D8F9240BF58274003EF583E0FCA3E0FD48
:1000BB00A3E0FEA3E0FFE47B107A27F9F81209F026
:1000CB00AC00AD01AE02AF03E47BE87A03F9F812A2
:1000DB0009F0900109EEF0A3EFF0900101E0FEA30F
:1000EB00E07802C333CE33CED8F9240BF5827400FB
:1000FB003EF583E0FCA3E0FDA3E0FEA3E0FFE47B81
:10010B00E87A03F9F81209F0AC00AD01AE02AF03C7
:10011B00E47B64FAF9F81209F090010BEEF0A3EF0F
:10012B00F0900101E0FEA3E07802C333CE33CED8CA
:10013B00F9240BF58274003EF583E0FCA3E0FDA3EC
:10014B00E0FEA3E0FFE47B64FAF9F81209F0AC00DF
:10015B00AD01AE02AF03E47B0AFAF9F81209F09095
:10016B00010DEEF0A3EFF0900101E0FEA3E07802A9
:10017B00C333CE33CED8F90204C1900101E0FEA304
:10018B00E0FFD3942DEE648094804003020346EF8E
:10019B007802C333CE33CED8F9240BF58274003EEC
:1001AB00F583E0FCA3E0FDA3E0FEA3E0FF7B407A38
:1001BB0042790F78001209F0900103EEF0A3EFF0F3
:1001CB00900101E0FEA3E07802C333CE33CED8F921
:1001DB00240BF58274003EF583E0FCA3E0FDA3E065
:1001EB00FEA3E0FF7B407A42790F78001209F0AC56
:1001FB0000AD01AE02AF037BA07A867901780012C5
:10020B0009F0900105EEF0A3EFF0900101E0FEA3E1
:10021B00E07802C333CE33CED8F9240BF5827400C9
:10022B003EF583E0FCA3E0FDA3E0FEA3E0FF7BA093
:10023B007A86790178001209F0AC00AD01AE02AFFD
:10024B0003E47B107A27F9F81209F0900107EEF01E
:10025B00A3EFF0900101E0FEA3E07802C333CE33AD
:10026B00CED8F9240BF58274003EF583E0FCA3E0B5
:10027B00FDA3E0FEA3E0FFE47B107A27F9F8120957
:10028B00F0AC00AD01AE02AF03E47BE87A03F9F802
:10029B001209F0900109EEF0A3EFF0900101E0FEDE
:1002AB00A3E07802C333CE33CED8F9240BF5827496
:1002BB00003EF583E0FCA3E0FDA3E0FEA3E0FFE43A
:1002CB007BE87A03F9F81209F0AC00AD01AE02AF8E
:1002DB0003E47B64FAF9F81209F090010BEEF0A33A
:1002EB00EFF0900101E0FEA3E07802C333CE33CEF2
:1002FB00D8F9240BF58274003EF583E0FCA3E0FDF6
:10030B00A3E0FEA3E0FFE47B64FAF9F81209F0AC7A
:10031B0000AD01AE02AF03E47B0AFAF9F81209F063
:10032B0090010DEEF0A3EFF0900101E0FEA3E07859
:10033B0002C333CE33CED8F90204C1900101E0FEE3
:10034B00A3E0FFD3942DEE6480948050030204E865
:10035B00A3E4F0A3740AF0EF7802C333CE33CED804
:10036B00F9240BF58274003EF583E0FCA3E0FDA3BA
:10037B00E0FEA3E0FF7BA07A86790178001209F0FA
:10038B00900105EEF0A3EFF0900101E0FEA3E07801
:10039B0002C333CE33CED8F9240BF58274003EF56D
:1003AB0083E0FCA3E0FDA3E0FEA3E0FF7BA07A8645
:1003BB00790178001209F0AC00AD01AE02AF03E495
:1003CB007B107A27F9F81209F0900107EEF0A3EFF2
:1003DB00F0900101E0FEA3E07802C333CE33CED818
:1003EB00F9240BF58274003EF583E0FCA3E0FDA33A
:1003FB00E0FEA3E0FFE47B107A27F9F81209F0ACDA
:10040B0000AD01AE02AF03E47BE87A03F9F8120901
:10041B00F0900109EEF0A3EFF0900101E0FEA3E0F4
:10042B007802C333CE33CED8F9240BF58274003E59
:10043B00F583E0FCA3E0FDA3E0FEA3E0FFE47BE893
:10044B007A03F9F81209F0AC00AD01AE02AF03E488
:10045B007B64FAF9F81209F090010BEEF0A3EFF0C0
:10046B00900101E0FEA3E07802C333CE33CED8F97E
:10047B00240BF58274003EF583E0FCA3E0FDA3E0C2
:10048B00FEA3E0FFE47B64FAF9F81209F0AC00ADCF
:10049B0001AE02AF03E47B0AFAF9F81209F09001FE
:1004AB000DEEF0A3EFF0900101E0FEA3E07802C3A4
:1004BB0033CE33CED8F9240BF58274003EF583E0AE
:1004CB00FCA3E0FDA3E0FEA3E0FFE47B0AFAF9F84E
:1004DB001209F0AF0390010FEAF0A3EFF0900103C4
:1004EB00A3E0FF121A0D900103121A0490010512DA
:1004FB001A04900107121A04900109121A049001B0
:10050B000B121A0490010D121A0490010FE4F0A3C0
:10051B00EFF0900103A3E0FDA3A3E0900114F09092
:10052B000107A3E0900115F07B2E7F0112158A9035
:10053B000109A3E0FDA3A3E0FBA3A3E0900114F04A
:0E054B0090010FA3E0900115F07F0202158AC7
:10178D00E4900101F030820320833C7F647E0012DF
:10179D00190820820B2083089001017403F0802723
:1017AD0020820B3083089001017401F08019308282
:1017BD000B2083089001017402F0800B30820830F9
:0C17CD008305E4900101F0900101E0FFB1
:0117D90022ED
:101A5200120814540FD394094005740612085A222E
:100AA80078017C017D017BFF7A1A79627E007F06DE
:100AB8001207EE78077C017D017BFF7A1A79687E40
:100AC800007F061207EEE490010DF07FF47E01121C
:100AD8001908308303020E921214B79000F2E090C6
:100AE8000101F09000F3E0900102F09000F5E0FFC2
:100AF800900103F09000F6E0900104F09000F8E017
:100B0800FE900105F09000F9E0900106F09000F4E5
:100B1800E0900107F0A3EFF09000F7E0900109F0F2
:100B2800A3EEF09000FAE090010BF09000FBE0904B
:100B3800010CF0308204A3E0700D7FC87E0012190A
:100B48000890010DE004F0308303020C567FC87E44
:100B58000012190890010DE0FFFD3395E0FC7400C8
:100B68002DF58274003CF583E004F074002DF582C5
:100B780074003CF583E0D39429401AEFB401169031
:100B8800010DE0FF3395E0FE74002FF58274003EFE
:100B9800F5837419F090010DE0FFFD3395E0FC74C6
:100BA800002DF58274003CF583E0D394124010EFD9
:100BB800B4020C2400F58274003CF5837401F090B3
:100BC8000001E024CCF582E43400F583E0FF9001D5
:100BD8000DE0FEFD3395E0FC74002DF58274003CB9
:100BE800F583E0D39F4010EEB4030C2400F5827423
:100BF800003CF5837401F090010DE0FFFD3395E0B2
:100C0800FC74002DF58274003CF583E0D3942340F6
:100C18000FEFB4040B2400F58274003CF583E4F074
:100C280090010DE0FFFD3395E0FC74002DF5827412
:100C3800003CF583E0D394594014D3EF6480948446
:100C4800400C74002DF58274003CF583E4F09001AB
:100C58000DE0FF6401704FEF3395E0FE74002FF54F
:100C68008274003EF583E0FFC4540F900107F0A39F
:100C7800EFF090000AE0900114F09000CBE09001B2
:100C880015F07B307D327F0112158A900109E0FD55
:100C9800A3E0FBA3E0900114F090010CE090011593
:100CA800F07F0212158A90010DE0FF64027053EF85
:100CB8003395E0FE74002FF58274003EF583E0FF63
:100CC800C4540F900109F0A3EFF0900107E09001E0
:100CD80014F0900108E0900115F07B307D327F011F
:100CE80012158A90000AE0FD9000CBE0FB90010B02
:100CF800E0900114F090010CE0900115F07F0212D1
:100D0800158A90010DE0FF64037051EF3395E0FE02
:100D180074002FF58274003EF583E0FFC4540F90F1
:100D2800010BF0A3EFF0900107E0900114F090019F
:100D380008E0900115F07B307D327F0112158A9012
:100D48000109E0FDA3E0FB90000AE0900114F09097
:100D580000CBE0900115F07F0212158A90010DE09A
:100D6800FF64047052EF3395E0FE74002FF582742F
:100D7800003EF583E0FFC4540F900101F0A3EFF0AB
:100D880090000AE0FD9000CBE0FB900114743AF06B
:100D9800900103E0900115F07F0112158A9001047B
:100DA800E0FDA3E0900114F0900106E0900115F039
:100DB8007B3A7F0212158A90010DE0FF640570529C
:100DC800EF3395E0FE74002FF58274003EF583E062
:100DD800FFC4540F900103F0A3EFF0900101E0FD70
:100DE800A3E0FB900114743AF090000AE09001151A
:100DF800F07F0112158A9000CBE0FD900105E0908C
:100E08000114F0900106E0900115F07B3A7F021280
:100E1800158A90010DE0FF64067052EF3395E0FEED
:100E280074002FF58274003EF583E0FFC4540F90E0
:100E38000105F0A3EFF0900101E0FDA3E0FB9001B4
:100E480014743AF0900103E0900115F07F01121537
:100E58008A900104E0FD90000AE0900114F09000EF
:100E6800CBE0900115F07B3A7F0212158A90010DB4
:100E7800E064076015308203020AE0308303020A47
:0A0E8800E07B017A0079DA121735D9
:010E9200223D
:100FFB001219EA121A427F0E12186AEF30E75C9050
:10100B000114744BF0A37420F07B4C7D437F0112D1
:10101B00158A9001147452F0A37420F07B527D4515
:10102B007F0212158A7F2C7E01121908900114740D
:10103B004BF0A37420F07B487D437F0112158A90FF
:10104B0001147433F0A37431F07B327D337F0212C1
:10105B00158A7F2C7E0112190880A41218D5121440
:10106B00B73000369000F2E0FDA3E0FBA3E0900167
:10107B0014F09000F5E0900115F07F0112158A90A5
:10108B0000F6E0FDA3E0FBA3E0900114F09000F963
:10109B00E0900115F07F0212158A12178DEF640193
:1010AB0070379000E5E0FDA3E0FBA3E0900114F0A6
:1010BB00A37439F07F0112158A9000EAE0FDA3E0DA
:1010CB00FB9000EDE0900114F09000EEE090011524
:1010DB00F07F0212158A3082FD12178DBF020312A8
:1010EB000AA812178DEF64036003021069121977B7
:1010FB00900007E0FF7E001200037F2C7E01121987
:10110B00083082FD3083FA7FE87E03121908021043
:01111B00696A
:09190800EF1F70011E144E601C5B
:1019110090010E7418F0A37455F090010FE014F0CB
:0A19210070F890010EE014F070F071
:03192B0080DB223C
:0E1A31009001207406F0900120E014F070F88F
:031A3F00DFF022B3
:101202004800F230303A30303A30304D00E532307A
:0B12120031332F31302F32302037579E
:10192E0090010EEFF0A3EDF01219977FD01216DB97
:10193E00EF701090010EE0FF1216DB90010FE0FF2A
:06194E001216DB021A1C58
:05186A00900101EFF008
:10186F001219977FD01216DBEF701D900101E0FF68
:10187F001216DB1219977FD11216DB12182790015F
:10188F0002EFF07F011219B3121A1C900102E0FF50
:01189F002226
:0C13E1007B0190011A7407F0E4A3F0FFF8
:0E13ED00900116EFF0A3EBF0A3EAF0A3E9F0F5
:1013FB0090011BE060691219977FD01216DBEF701A
:10140B005C900116E0FF1216DB1219977FD11216B2
:10141B00DBE490011CF090011AE0FF90011CE0C38B
:10142B009F503A121827900117E0FBA3E0FAA3E0B4
:10143B00F9EF12087C90011AE014FF90011CE0B543
:10144B0007047F018002E4FF1219B3900118E475C1
:10145B00F00112093B90011CE004F080B9804912A5
:10146B0019977FD01216DBEF703E900116E0FF123A
:10147B0016DBE490011CF090011AE0FF90011CE0D8
:10148B00C39F5024900117E0FBA3E0FAA3E0F912ED
:10149B000814FF1216DB900118E475F00112093BDA
:0B14AB0090011CE004F080CF121A1C1E
:0114B6002213
:10130900EF700302139D7B017A01790E90011A7423
:1013190007F0A37401F0E4FF1213ED90010EE054FD
:101329007FFF7E009000E3EEF0A3EFF0900008E06D
:101339006F7001E4600DD2009000E3A3E090000813
:10134900F08002C20090010FE0547FFF9000E1E4B9
:10135900F0A3EFF0900110E0543FFF9000DFE4F0BC
:10136900A3EFF0900111E054079000DDF090011215
:10137900E0543F9000DEF0900113E0541F9000DC30
:10138900F0900114E0FFEF4415FF9000DA7420F0AB
:10139900A3EFF0229000E3A3E090010EF09000E1AA
:1013A900A3E090010FF09000DFA3E0900110F0900E
:1013B90000DDE0900111F09000DEE0900112F09064
:1013C90000DCE0900113F09000DAA3E0900114F042
:0713D9007A01790E1213E105
:0113E00022EA
:1017350090000912097C9000FAF090000712097CCC
:101745009000FBF090000512097C9000FCF09000E1
:101755000312082D9000FDF090000412082D900052
:10176500FEF090000212082D9000FFF01209519032
:101775000100F07A0079FA1213E1E4FD7F0E1219E7
:081785002EE4FD7F0F02192E76
:1019CF007F0F12186AEF30E7037F01227F0E121884
:0B19DF006AEF30E7037F01227F002247
:1014B7007F011213099000E3E0FCA3E0FDAE04787E
:1014C70004CEA2E713CE13D8F824309000F8F0ED3D
:1014D700540F2430A3F09000E1E0FCA3E0FDAE043C
:1014E7007804CEA2E713CE13D8F824309000F5F095
:1014F700ED540F2430A3F09000DFE0FCA3E0FDAE35
:10150700047804CEA2E713CE13D8F824309000F263
:10151700F0ED540F2430A3F09000DEE0FDC4540F2B
:1015270024309000EDF0ED540F2430A3F09000DC50
:10153700E0FDC4540F24309000EAF0ED540F24303E
:10154700A3F09000DAE0FCECC4540F24309000E5DF
:10155700F0EC540F2430A3F09000DAA3E0FDECC4C4
:10156700F854F0C8EDC4540F4824309000E7F0ED6C
:10157700540F2430A3F09000DDE0540F2430900086
:03158700F0F0225F
:0B0E9300900121EBF0A3EAF0A3E9F0CE
:100E9E007F1112186A900124EFF07F1212186AEF78
:100EAE00C413135403FF900124E0FE30E715F4F051
:100EBE00EFF404FF900121E0FBA3E0FAA3E0F97444
:100ECE002D800D900121E0FBA3E0FAA3E0F9742040
:100EDE0012087CAC07E4120669E4FBFA7980783ECE
:100EEE00120559900125120A90900124E05470F0D9
:100EFE00E0FF7E007C037DE81208B07E007F64CFA9
:100F0E00CDCFCECCCE1208B0EF2430FF900121E031
:100F1E00FBA3E0FAA3E0F9900001EF12088E900116
:100F2E0024E0FF75F06484E5F075F00A84243090B7
:100F3E00000212088EEF75F00A84E5F0243090005E
:100F4E000312088E900004742E12088EE4FFFE7DAC
:100F5E00207C41900125E0F8A3E0F9A3E0FAA3E09C
:100F6E00FB12055912069DEF2430FF900121E0FB84
:100F7E00A3E0FAA3E0F9900005EF12088EE4FFFE5D
:100F8E007DC87C42900125E0F8A3E0F9A3E0FAA326
:100F9E00E0FB12055912069DEF75F00A84E5F02468
:100FAE0030FF900121E0FBA3E0FAA3E0F9900006E8
:100FBE00EF12088E90000112082DB430139001210B
:100FCE00E0FBA3E0FAA3E0F9900001742012088E72
:100FDE00900121E0FBA3E0FAA3E0F99000021208D1
:0C0FEE002DB43008900002742012088E10
:010FFA0022D4
:10195400EF24FE600F14601114601324037013D27B
:1019640096D29722D296C29722C296D29722C29634
:03197400C29722F5
:1018A0007F0212195490012DE0FBA3E0FAA3E0900F
:0718B0000001F912082DFFF1
:1018B700EFA2E392B7A2E292B6A2E192B51392B475
:0E18C700EFA2E692A0A2E59293A2E4929422F0
:10121E0090012DEBF0A3EAF0A3E9F0EF24FE60704D
:10122E000460030213087F0112195490012DE0FB94
:10123E00A3E0FAA3E0F9120814FF1218B7C2907FC8
:10124E0001121A31D2901218A0C2907F01121A31D7
:10125E00D2907F0312195490012DE0FBA3E0FAA364
:10126E00E09000021218B2C2907F01121A31D29091
:10127E007F0412195490012DE0FBA3E0FAA3E0F9CC
:10128E009000031218B3C2907F01121A31D290222D
:10129E007F0112195490012DE0FBA3E0FAA3E0F9AF
:1012AE00120814FF1218B7C2957F01121A31D29587
:1012BE001218A0C2957F01121A31D2957F0312190E
:1012CE005490012DE0FBA3E0FAA3E0F99000021286
:1012DE0018B3C2957F01121A31D2957F0412195498
:1012EE0090012DE0FBA3E0FAA3E0F99000031218A1
:0B12FE00B3C2957F01121A31D2952275
:10158A00900112EDF0A3EBF0EF24FE605F0460031C
:10159A0002164E7F01121954900112E0FF1218B779
:1015AA00C2907F01121A31D2907F0212195490010F
:1015BA0013E0FF1218B7C2907F01121A31D2907F3E
:1015CA0003121954900114E0FF1218B7C2907F0158
:1015DA00121A31D2907F04121954900115E0FF12A9
:1015EA0018B7C2907F01121A31D290227F011219C4
:1015FA0054900112E0FF1218B7C2957F01121A31F6
:10160A00D2957F02121954900113E0FF1218B7C243
:10161A00957F01121A31D2957F0312195490011441
:10162A00E0FF1218B7C2957F01121A31D2957F04D2
:10163A00121954900115E0FF1218B7C2957F0112D2
:05164A001A31D29522C7
:10199700D2A47F02121A31D2A57F02121A31C2A431
:0C19A7007F02121A31C2A57F02021A3121
:101A1C00C2A47F02121A31C2A57F02121A31D2A4BB
:051A2C007F02021A31E7
:1019B300EF6004D2A48002C2A47F02121A31D2A51E
:0C19C3007F02121A31C2A57F02021A3105
:0516DB0090011DEFF07D
:1016E000E490011FF090011EF090011DE030E7042E
:1016F000D2A48002C2A47F02121A31D2A57F0212A4
:101700001A31C2A590011DE025E0F0A3E004F0E04D
:10171000C3940840D4D2A47F02121A31D2A57F020A
:10172000121A3190011FE0FFA2A4E433FEEF4EF045
:04173000C2A5E0FF6F
:011734002292
:10182700E490011EF0D2A490011DF090011EE02566
:10183700E0F07F02121A31D2A57F02121A3130A4CA
:101847000790011EE04401F0C2A57F02121A3190F1
:10185700011DE004F0E0C3940840D0C2A590011E2A
:02186700E0FFA0
:01186900225C
:10055900EC4D6011E8497017ED33EC3304600DE49C
:10056900FCFFFEFD22E933E8330470F802070912A3
:1005790006D458046009E4CC2481500628500902A5
:100589000713284003020710C0E0EB4A7044B98002
:1005990006D0E0FB0206FFEF4E701CBD8008EBFFA2
:1005A900EAFEE9FD80EBE98DF0A4FEE5F0020642E2
:1005B900E9CDF9EAFEEBFFEF89F0A4FCE5F0CE897D
:1005C900F0A42EFFE435F0CD89F0A42DFEE435F03A
:1005D9008067EF4E7005BD80D780C3EF8BF0A4AC68
:1005E900F0EE8BF0A42CFCE435F0F8EF8AF0A42CA3
:1005F900E5F038FCE433CB8DF0A42CFCE5F03BF8B6
:10060900EE8AF0A42CFCE5F038F8E433CF89F0A4A5
:100619002CFCE5F038CF3400CE89F0A42FFFE5F0AB
:100629003EFEE433C98DF0A42EFEE5F039CD8AF003
:10063900A42FFFE5F03EFEE43DFD33D0E0FB50077B
:100649000BBB000F020713EC2CFCEF33FFEE33FE5C
:06065900ED33FD0206EB8B
:10065F0075F020800E75F010800575F0087D007E16
:10066F00007F003392D530D503120A82EC3340104D
:10067F00EF33FFEE33FEED33FDEC33FCD5F0ED221F
:0E068F00E5F0247EA2D513CC92E7CDCEFF225B
:10069D00EDD2E7CD33EC3392D524814006E4FFFE55
:1006AD00FDFC22FCE4CFCECDCC24E0501174FF80B4
:1006BD00EDC3CC13CCCD13CDCE13CECF13CF047051
:0706CD00F030D5DE020A82C5
:1006D400E9D2E7C933E833F892D5EDD2E7CD33EC6C
:0706E40033FC5002B2D522E5
:1006EB00EC30E7100FBF000C0EBE00080DBD000470
:1006FB000BEB6014A2D5EB13FCED92E7FD2274FF1C
:10070B00FCFDFEFF22E480F8A2D574FF13FC7D8074
:03071B00E480EF88
:0300000002164F96
:0C164F00787FE4F6D8FD75812002169625
:10071E00E709F608DFFA8046E709F208DFFA803EBD
:10072E0088828C83E709F0A3DFFA8032E309F608AA
:10073E00DFFA8078E309F208DFFA807088828C8312
:10074E00E309F0A3DFFA806489828A83E0A3F608C6
:10075E00DFFA805889828A83E0A3F208DFFA804CA0
:10076E0080D280FA80C680D4806980F28033801077
:10077E0080A680EA809A80A880DA80E280CA8033E0
:10078E0089828A83ECFAE493A3C8C582C8CCC58358
:10079E00CCF0A3C8C582C8CCC583CCDFE9DEE78028
:1007AE000D89828A83E493A3F608DFF9ECFAA9F0A7
:1007BE00EDFB2289828A83ECFAE0A3C8C582C8CCFD
:1007CE00C583CCF0A3C8C582C8CCC583CCDFEADE16
:1007DE00E880DB89828A83E493A3F208DFF980CC78
:1007EE0088F0EF60010E4E60C388F0ED2402B40471
:1007FE000050B9F582EB2402B4040050AF23234518
:06080E00822390076E73C7
:10081400BB010689828A83E0225002E722BBFE02E2
:09082400E32289828A83E4932215
:10082D00BB010CE58229F582E5833AF583E0225080
:10083D0006E92582F8E622BBFE06E92582F8E222CA
:0D084D00E58229F582E5833AF583E49322E4
:10085A00BB010989828A83F8E028F022500327F72E
:10086A0022BBFE05F8E328F3228A838982F8E493FF
:02087A00282232
:10087C00BB010689828A83F0225002F722BBFE015B
:02088C00F32255
:10088E00F8BB010DE58229F582E5833AF583E8F0A0
:10089E00225006E92582C8F622BBFE05E92582C84C
:0208AE00F22234
:1008B000BC000BBE0029EF8DF084FFADF022E4CC2C
:1008C000F875F008EF2FFFEE33FEEC33FCEE9DECF5
:1008D000984005FCEE9DFE0FD5F0E9E4CEFD22ED3B
:1008E000F8F5F0EE8420D21CFEADF075F008EF2F85
:1008F000FFED33FD4007985006D5F0F222C398FD76
:050900000FD5F0EA2212
:10090500C2D5EC30E709B2D5E4C39DFDE49CFCEE0D
:1009150030E715B2D5E4C39FFFE49EFE1208B0C3CD
:10092500E49DFDE49CFC80031208B030D507C3E4C8
:060935009FFFE49EFE227C
:10093B00C5F0F8A3E028F0C5F0F8E5821582700247
:06094B001583E038F022E4
:10095100BB010A89828A83E0F5F0A3E02250068771
:10096100F009E71922BBFE07E3F5F009E319228933
:0B097100828A83E493F5F07401932266
:10097C00BB0110E58229F582E5833AF583E0F5F0B9
:10098C00A3E0225009E92582F886F008E622BBFE96
:10099C000AE92582F8E2F5F008E222E5832AF583DC
:0809AC00E993F5F0A3E99322A1
:1009B40075F008758200EF2FFFEE33FECD33CDCCFA
:1009C40033CCC58233C5829BED9AEC99E58298407D
:1009D4000CF582EE9BFEED9AFDEC99FC0FD5F0D65A
:1009E400E4CEFBE4CDFAE4CCF9A88222B800C1B984
:1009F4000059BA002DEC8BF084CFCECDFCE5F0CBC2
:100A0400F97818EF2FFFEE33FEED33FDEC33FCEBFA
:100A140033FB10D703994004EB99FB0FD8E5E4F9B5
:100A2400FA227818EF2FFFEE33FEED33FDEC33FCA2
:100A3400C933C910D7059BE99A4007EC9BFCE99A96
:100A4400F90FD8E0E4C9FAE4CCFB2275F010EF2FDB
:100A5400FFEE33FEED33FDCC33CCC833C810D707DB
:100A64009BEC9AE899400AED9BFDEC9AFCE899F816
:0E0A74000FD5F0DAE4CDFBE4CCFAE4C8F922A9
:0E0A8200C3E49FFFE49EFEE49DFDE49CFC2285
:0C0A9000ECF0A3EDF0A3EEF0A3EFF022D9
:1017DA00900129120A9C7810EC4D4E4F70047CA59A
:1017EA007DA5C3EC13FCED13FDEE13FEEF13FF50C2
:1017FA0010EC64CCFCED644CFDEE644EFEEF64CE5E
:10180A00FFD8DF900129120A90EE547FFE22900140
:0D181A0029EEF0EFA3F0A374A5F0A3F022D7
:10165B00020FFBE493A3F8E493A34003F68001F29B
:10166B0008DFF48029E493A3F85407240CC8C33390
:10167B00C4540F4420C8834004F456800146F6DF5F
:10168B00E4800B010204081020408090111CE47EC2
:10169B00019360BCA3FF543F30E509541FFEE49354
:1016AB00A360010ECF54C025E060A840B8E493A31B
:1016BB00FAE493A3F8E493A3C8C582C8CAC583CA46
:1016CB00F0A3C8C582C8CAC583CADFE9DEE780BEFE
:01121D0000D0
:0C0A9C00E0FCA3E0FDA3E0FEA3E0FF22CD
:00000001FF
